:020000040800F2
:10000000583B002021020008610600081106000884
:100010005D06000861040008730E0008000000007F
:10002000000000000000000000000000890100083E
:100030006504000800000000CD010008F908000870
:100040003B0200083B0200083B0200083B0200089C
:100050003B0200083B0200083B0200083B0200088C
:100060003B0200083B0200083B0200083B0200087C
:100070003B0200083B0200083B0200083B0200086C
:100080003B0200083B0200083B0200083B0200085C
:100090003B0200083B0200083B0200083B0200084C
:1000A0003B0200083B0200083B0200083B0200083C
:1000B0003B0200083B0200083B0200083B0200082C
:1000C0003B0200083B0200083B0200083B0200081C
:1000D0003B020008510C00083B0200083B020008EC
:1000E0003B0200083B0200083B02000800F002F857
:1000F00000F03AF80AA090E8000C82448344AAF188
:100100000107DA4501D100F02FF8AFF2090EBAE885
:100110000F0013F0010F18BFFB1A43F0010318473B
:10012000282B0000482B0000103A24BF78C878C163
:10013000FAD8520724BF30C830C144BF04680C60ED
:10014000704700000023002400250026103A28BF35
:1001500078C1FBD8520728BF30C148BF0B60704739
:100160001FB51FBD10B510BD00F047F91146FFF7D0
:10017000F7FF00F083FF00F065F903B4FFF7F2FF2B
:1001800003BC00F035FF0000224B19680868B0E896
:10019000F00F80F30988BFF36F8F4FF0000080F3FA
:1001A00011884EF00D0E70470000000006480068F0
:1001B000006880F3088862B661B6BFF34F8FBFF363
:1001C0006F8F00DF00BF00BF08ED00E0EFF3098094
:1001D000BFF36F8F0F4B1A6820E9F00F106008B55E
:1001E0004FF0500080F31188BFF34F8FBFF36F8F34
:1001F00001F0F0FF4FF0000080F31188BDE80840E7
:1002000019680868B0E8F00F80F30988BFF36F8FB2
:10021000704700BF00000020EFF30580704700002A
:100220000948804709480047FEE7FEE7FEE7FEE78A
:10023000FEE7FEE7FEE7FEE7FEE7FEE704480549C6
:10024000054A064B7047000009090008ED00000848
:1002500058350020583B00205837002058370020E0
:100260007047032A40F2308010F0030C00F0158034
:1002700011F8013BBCF1020F624498BF11F801CBA9
:1002800000F8013B38BF11F8013BA2F1040298BF0E
:1002900000F801CB38BF00F8013B11F0030300F078
:1002A0005880083AC0F0088051F8043B083A51F8E9
:1002B00004CBA0E80810F5E7121D5CBF51F8043B21
:1002C00040F8043BAFF30080D20724BF11F8013B94
:1002D00011F801CB48BF11F8012B24BF00F8013BF6
:1002E00000F801CB48BF00F8012B704702F0FF0374
:1002F00043EA032242EA024200F05FB84FF00002F4
:1003000000B5134694469646203922BFA0E80C500B
:10031000A0E80C50B1F12001BFF4F7AF090728BFE6
:10032000A0E80C5048BF0CC05DF804EB890028BF62
:1003300040F8042B08BF704748BF20F8022B11F08B
:10034000804F18BF00F8012B704770477047704707
:10035000704710B5203AC0F00B80B1E81850203A31
:10036000A0E81850B1E81850A0E81850BFF4F5AF55
:100370005FEA027C24BFB1E81850A0E8185044BFDF
:1003800018C918C0BDE810405FEA827C24BF51F84C
:10039000043B40F8043B08BF7047D20728BF31F840
:1003A000023B48BF11F8012B28BF20F8023B48BF91
:1003B00000F8012B70474FF000020429C0F01280B2
:1003C00010F0030C3FF49CAFCCF1040CBCF1020F15
:1003D00018BF00F8012BA8BF20F8022BA1EB0C01DD
:1003E000FFF78EBF5FEAC17C24BF00F8012B00F845
:1003F000012B48BF00F8012B7047754600F02CF820
:10040000AE4605006946534620F00700854618B001
:1004100020B5FFF713FFBDE820404FF000064FF076
:1004200000074FF000084FF0000B21F00701AC4629
:10043000ACE8C009ACE8C009ACE8C009ACE8C00948
:100440008D46704710B50446AFF300802046BDE8E6
:100450001040FFF792BE000000487047F4340020BF
:1004600000BFFEE770472DE9F04102460025002657
:10047000002000230024002791F803C00CF00F0592
:1004800091F803C00CF0100CBCF1000F03D091F8F0
:1004900002C04CEA050591F800C0BCF1000F31D054
:1004A000146800202BE04FF0010C0CFA00F3B1F8B7
:1004B00000C00CEA03069E4220D183004FF00F0CCF
:1004C0000CFA03F7BC4305FA03FC4CEA040491F868
:1004D00003C0BCF1280F06D14FF0010C0CFA00FC50
:1004E000C2F814C00AE091F803C0BCF1480F05D16E
:1004F0004FF0010C0CFA00FCC2F810C0401C082898
:10050000D1D31460B1F800C0BCF1FF0F34DD5468E2
:1005100000202EE000F1080C4FF0010808FA0CF35F
:10052000B1F800C00CEA03069E4221D183004FF0CF
:100530000F0C0CFA03F7BC4305FA03FC4CEA040465
:1005400091F803C0BCF1280F05D100F1080C08FA9E
:100550000CF8C2F8148091F803C0BCF1480F07D121
:1005600000F1080C4FF0010808FA0CF8C2F81080EE
:10057000401C0828CED35460BDE8F081F0B50A468F
:10058000002300240021002500F00046B6F1004FB2
:1005900002D11D4EF16901E01B4E7168C0F30345A5
:1005A00083B200F44016B6F5401F08D121F0706107
:1005B000154E766826F07066134F7E6012E000F4E8
:1005C0008016B6F5801F06D1032606FA05F4A1436E
:1005D00041F0706106E0460D360103FA06F6B143BC
:1005E00041F0706122B1460D360103FA06F631433F
:1005F00000F00046B6F1004F02D1034EF16101E078
:10060000014E7160F0BD00000000014001617047C3
:1006100000BFFEE708B50121042000F06BF80820B8
:10062000ADF8000010208DF8030003208DF80200C3
:1006300069460948FFF717FF0420ADF8000048207D
:100640008DF8030069460448FFF70DFF08210248B2
:10065000FFF7DCFF08BD00000008014000BFFEE717
:100660007047000070B5002100230F22C47804B346
:10067000154C246804F4E064C4F5E064210AC1F177
:100680000403CA40447804FA03F1847814402143F7
:1006900009010E4C0678A155047804F01F050124C9
:1006A000AC4005786D11AD0005F1E025C5F80041BD
:1006B00009E0047804F01F050124AC40044D0678DD
:1006C000761145F8264070BD0CED00E000E400E036
:1006D00080E100E029B1064AD2690243044BDA61A5
:1006E00004E0034AD2698243014BDA61704700009B
:1006F0000010024029B1064A92690243044B9A61F4
:1007000004E0034A92698243014B9A6170470000FA
:100710000010024030B500210022002400232D4D9E
:100720006D6805F00C0121B1042905D0082923D1F9
:1007300005E0294D056022E0274D05601FE0254DAD
:100740006D6805F47012234D6D6805F48034022540
:1007500005EB92421CB9214D554305600BE01D4D40
:100760006D6805F400351DB11C4D5543056002E070
:10077000194D5543056002E0174D056000BF00BFED
:10078000144D6D6805F0F0010909154D6B5C0568A5
:10079000DD4045600F4D6D6805F4E061090A104DBC
:1007A0006B5C4568DD4085600A4D6D6805F46051FD
:1007B000C90A0B4D6B5C4568DD40C560054D6D6831
:1007C00005F44041890B074D6B5CC568B5FBF3F53B
:1007D000056130BD0010024000127A0000093D00A2
:1007E0006C0000207C00002010B500F001F810BD66
:1007F0000CB50020019000903348006840F4803030
:100800003149086000BF3048006800F400300090B3
:100810000198401C0190009818B90198B0F5A06F9C
:10082000F1D12948006800F4003010B10120009097
:1008300001E0002000900098012843D1234800687F
:1008400040F01000214908600846006820F00300CD
:1008500008600846006840F0020008601A484068D6
:10086000194948600846406848600846406840F4B6
:10087000806048600846406820F47C104860084664
:10088000406840F4E81048600846006840F0807016
:10089000086000BF0C48006800F000700028F9D024
:1008A0000948406820F0030007494860084640684E
:1008B00040F00200486000BF0348406800F00C00B0
:1008C0000828F9D10CBD00000010024000200240B1
:1008D000042808D14FF0E021096941F004014FF0EC
:1008E000E022116107E04FF0E021096921F00401E5
:1008F0004FF0E0221161704710B501F0FFFE0128B2
:1009000001D001F0B1FC10BD10B51348006840F0F3
:1009100001001149086008464068104908400E4926
:100920004860084600680E4908400B4908600846C0
:10093000006820F4802008600846406820F4FE002B
:1009400048604FF41F008860FFF74EFF4FF00060D3
:100950000449086010BD0000001002400000FFF8CC
:10096000FFFFF6FE08ED00E021B1028842F001022F
:10097000028004E002884FF6FE731A40028070473E
:1009800070B5002400220023058C4FF6FE7635401A
:100990000584028C8388048B4FF68F752C40B51E1E
:1009A0002C400D882C43751E2A400D892A434D8802
:1009B0002A43144DA8420BD0134DA84208D0134D22
:1009C000A84205D0124DA84202D0124DA84213D120
:1009D0004FF6F7752A404D892A434FF6FB752A409A
:1009E0008D882A434FF6FF652B404FF6FF552B406D
:1009F0008D892B43CD892B4383800483CD888586C5
:100A0000028470BD002C01400034014000400140D0
:100A100000440140004801400A460021018B4FF686
:100A2000F7731940114301837047000070B500242B
:100A300000220023058C4FF6EF7635400584028CAA
:100A40008388048B48F6FF752C404FF6FF452C40F9
:100A50000D884FF6FF7606EA05252C434FF6DF7525
:100A60002A400D8906EA05152A434D8806EA051530
:100A70002A43154DA84202D0144DA8421DD14FF66D
:100A80007F752A404D894FF6FF7606EA05152A4301
:100A90004FF6BF752A408D8806EA05152A434FF6A2
:100AA000FF352B404FF2FF752B408D8906EA8505F7
:100AB0002B43CD8906EA85052B4383800483CD88AB
:100AC0000587028470BD0000002C01400034014005
:100AD0000A460021018B4FF2FF7319404FF6FF7356
:100AE00003EA0223194301837047000070B5002414
:100AF00000220023058C4FF6FF6635400584028CEA
:100B00008388848B4FF68F752C404FF6FC752C40F4
:100B10000D882C434FF6FF552A400D894FF6FF767E
:100B200006EA05252A434D8806EA05252A43154D80
:100B3000A84202D0144DA8421DD14FF2FF752A40A1
:100B40004D894FF6FF7606EA05252A434FF6FF3515
:100B50002A408D8806EA05252A434EF6FF752B406C
:100B60004DF6FF752B408D8906EA05152B43CD897F
:100B700006EA05152B4383808483CD88858702840C
:100B800070BD0000002C0140003401400A460021E5
:100B9000818B4FF6F773194011438183704781862B
:100BA00070470187704781877047000000220288E4
:100BB0001D4B98420ED01D4B98420BD0B0F1804F88
:100BC00008D01B4B984205D01A4B984202D01A4BC2
:100BD000984204D14FF68F731A404B881A43174B33
:100BE000984207D0164B984204D04FF6FF431A4064
:100BF000CB881A4302808B8883850B8803850A4B38
:100C000098420BD0094B984208D00E4B984205D021
:100C10000D4B984202D00D4B984201D10B7A0386BE
:100C20000123838270470000002C01400034014002
:100C30000004004000080040000C0040001000408C
:100C400000140040004001400044014000480140C1
:100C500010B540F225511D4800F04AF810B31B486A
:100C600000F002F9C4B21A48008800F40040C8B984
:100C70001748008800F4804060B10A2C03D000209F
:100C80001349088020E01248008840F400401049D1
:100C9000088019E00D2C06D10D48008840F48040F2
:100CA0000B49088010E00A480088C0F30D0009498C
:100CB0000C5407480088401C0549088008460088F5
:100CC000C72801DD0020088010BD00000038014069
:100CD000C80000202C34002021B1828942F4005247
:100CE000828104E082894DF6FF731A408281704749
:100CF00070B50246002400230025002040F66A1645
:100D0000B14200D100BFC1F3421501F01F0301261B
:100D100006FA03F3012D02D19689334006E0022D35
:100D200002D1168A334001E0968A33400C12012624
:100D300006FA04F41688344013B10CB1012000E027
:100D4000002070BDF0B503460024002600250020D9
:100D500040F66A17B94200D100BF1846C1F34214E9
:100D600001F01F06012707FA06F5012C01D10C300E
:100D700004E0022C01D1103000E014301AB10768F1
:100D80002F43076002E00768AF430760F0BD000033
:100D90002DE9F04786B005460E460024A24600BF66
:100DA000A1460027B08900B100BF2F462C8A4CF61F
:100DB000FF700440F08804432C82AC894EF6F31097
:100DC0000440B08831890843718908430443AC81E9
:100DD000AC8A4FF6FF400440B0890443AC8201A8BE
:100DE000FFF798FC1F48874202D1DDF810A001E010
:100DF000DDF80CA0A88900F4004040B10AEBCA005D
:100E000000EB0A1031684900B0FBF1F807E00AEB8B
:100E1000CA0000EB0A1031688900B0FBF1F86420C9
:100E2000B8FBF0F004012009642101FB1089A889B6
:100E300000F4004040B1322000EBC900B0FBF1F0FB
:100E400000F00700044308E0322000EB09106421A1
:100E5000B0FBF1F000F00F0004432C8106B0BDE8B8
:100E6000F08700000038014001468888C0F3080080
:100E7000704700BFFEE70000A2E052480068C04390
:100E80005149C1F8B80151495148006801F0AAFE22
:100E900004D250480068401C4E4908604E48007813
:100EA000052805DC4C480078401C4B49087014E0CC
:100EB0004848006803280BD948480068401C474947
:100EC00008600120464908704FF4FA7045490860EF
:100ED0000020414908703F490860414800780128D6
:100EE0006BD14048006820B13E480068401E3D4933
:100EF00008603C48006800285FD138480068032833
:100F000019D14FF480713848FFF749FE0021364867
:100F1000FFF747FE00213448FFF745FE4FF480718C
:100F20003248FFF73CFE00213048FFF73AFE00212F
:100F30002E48FFF738FE29480068042819D10021FF
:100F40002948FFF72CFE4FF480712748FFF729FE50
:100F500000212548FFF727FE00212448FFF71FFE48
:100F60004FF480712148FFF71CFE00211F48FFF756
:100F70001AFE1A480068052819D100211A48FFF7FF
:100F80000EFE00211848FFF70CFE4FF48071164842
:100F9000FFF709FE00211548FFF701FE0021134865
:100FA000FFF7FFFD4FF480711048FFF7FCFD0220B2
:100FB0000B490870002009490860142001F014F85A
:100FC0005BE70000B88121420080214200004842D6
:100FD000980000209C000020A4000020A800002011
:100FE000AC000020A00000200004004000080040E9
:100FF00000BF70471CB50548012100238022CDE9C0
:10100000001003A1054801F049FB1CBD8800002029
:1010100073746172745F7461736B0000E51D000886
:1010200010B50420FFF754FC104800681049B0FBCD
:10103000F1F0104908700D4800680D49B0FBF1F45B
:101040004FF47A70444301200B4908804FF0E020B0
:10105000006940F002004FF0E02108610846446159
:10106000006940F00100086110BD0000B0000020E0
:1010700040420F0080000020820000201348FFF74C
:1010800049FB01210846FFF735FB01211048FFF716
:1010900075FAFFF7C5FF00F03BF800F0A7F800F085
:1010A0001DF800F00FF9FFF7B5FA4FF48071094809
:1010B000FFF775FD4FF480710748FFF770FDFFF7EC
:1010C00099FF01F047F800BFFEE700001834002048
:1010D00000023000000400400008004008B5012173
:1010E0000820FFF707FB10208DF803008002ADF801
:1010F000000003208DF8020069460448FFF7B3F9A9
:101100004FF480410148FFF781FA08BD000C01400F
:1011100000B589B001210220FFF7DCFA01210D2082
:10112000FFF7E8FA4020ADF8200018208DF82300E2
:1011300003208DF8220008A92948FFF794F98020A0
:10114000ADF8200018208DF8230003208DF8220030
:1011500008A92348FFF787F90120ADF820001820DF
:101160008DF8230003208DF8220008A91D48FFF701
:101170007AF940F2CF20ADF818000020ADF8140045
:10118000ADF81A00ADF8160005A91748FFF70EFDD7
:101190006020ADF804000120ADF806000020ADF895
:1011A0000C0001A91048FFF7EBFB01A90E48FFF75F
:1011B0003DFC01A90C48FFF799FC08210A48FFF7FC
:1011C0002BFC08210848FFF783FC08210648FFF79D
:1011D000DDFC01210448FFF7C7FB09B000BD00009A
:1011E00000080140000C01400004004000B589B037
:1011F00001210420FFF76EFA01210920FFF77AFA96
:101200004020ADF8200018208DF8230003208DF831
:10121000220008A92948FFF726F98020ADF8200010
:1012200018208DF8230003208DF8220008A92348F8
:10123000FFF719F94FF48070ADF8200018208DF8F1
:10124000230003208DF8220008A91C48FFF70BF9A2
:1012500040F2CF20ADF818000020ADF81400ADF832
:101260001A00ADF8160005A91548FFF79FFC60208D
:10127000ADF804000120ADF806000020ADF80C0028
:1012800001A90F48FFF77CFB01A90D48FFF7CEFB32
:1012900001A90B48FFF72AFC08210948FFF7BCFB0E
:1012A00008210748FFF714FC08210548FFF76EFCEA
:1012B00001210348FFF758FB09B000BD000C0140B5
:1012C0000008004000B587B0012144F20400FFF798
:1012D00011FA4FF40070ADF8180003208DF81A00D1
:1012E00018208DF81B0006A91D48FFF7BCF84FF425
:1012F0008060ADF8180004208DF81B0006A918487E
:10130000FFF7B1F825208DF8040003208DF80500C3
:101310008DF8060001208DF8070001A8FFF7A2F95B
:101320004FF4E13002900020ADF80C00ADF80E0053
:10133000ADF81000ADF814000C20ADF8120002A9B1
:101340000848FFF725FD012240F225510548FFF727
:10135000F9FC01210348FFF7BFFC07B000BD000006
:1013600000080140003801402DE9F04105460E46D5
:101370001C4807681C480068001D00F055FD50B966
:101380001948006890F82C10012088401749096816
:10139000814316480160681C38B936B112480168AB
:1013A000091D134800F07EFD1AE07C190E48006804
:1013B0004460BC4207D20C480168091D0D48006812
:1013C00000F056FD0CE008480168091D0A48006855
:1013D00000F04EFD09480068844201D207480460CD
:1013E000BDE8F0811400002000000020180000205B
:1013F000DC03002008000020040000203000002052
:1014000010B5044600F05AFD24480068401C2349EA
:1014100008602348006840B9214804600846006815
:1014200001280DD100F0C6F90AE01E48006838B95D
:101430001B480068C06AE16A884201D81848046005
:1014400019480068401C1849086008460068606434
:1014500094F82C1001208840144909680843134966
:101460000860E16A01EB8101114A02EB8100211D54
:1014700000F018FD00F034FD0A48006868B1084823
:101480000068C06AE16A884207D24FF0805009497B
:101490000860BFF34F8FBFF36F8F10BD10000020A7
:1014A000000000201C0000202C000020180000205C
:1014B0000C01002004ED00E010B500F0FFFC104826
:1014C0000068D0B90F4800F0C3FC0F4800F0C0FC22
:1014D0000C480E4908600C480D4908600022102194
:1014E000052000F0DBFE064908600846006820B1D0
:1014F00008A10348006800F03BFD00F0F1FC10BDBE
:1015000044000020F0030020040400203C000020E0
:1015100040000020546D72510000000010B516E02C
:1015200000F0CCFC0C48C068C468201D00F07CFCB6
:101530000A480068401E0949086009480068401EC2
:101540000749086000F0CCFC204600F05FF8044832
:1015500000680028E4D110BDC8030020100000205E
:101560000C00002070B504460D46206C70B1216C53
:10157000E0680144E160D4E90210884201D32168A7
:10158000E1602846226CE168FEF76BFE70BD2DE934
:10159000F04104460F4615464FF00008A66B206C3C
:1015A00048B9206800282CD1A06801F04BF980468A
:1015B0000020A06025E07DB93946226C6068FEF706
:1015C00050FE216C606808446060D4E901018842E3
:1015D00017D32068606014E03946226CE068FEF79B
:1015E00040FE216CE068411AE1602168E0688842B1
:1015F00003D2216CA068411AE160022D01D106B12D
:10160000761E701CA0634046BDE8F08110B504460C
:10161000206B00F075FC204600F072FC10BD00004D
:101620000146084A126812680AB9012200E0002245
:101630000A600A6822B9034A1268D268106800E09A
:10164000002070473C00002030B54FF4405317484D
:1016500000F007042CB1C01D20F00700134C041B40
:101660001B1B0246124C22600024114D6C60D018E6
:10167000083820F007000F4C206000240D4D2D6825
:101680006C600C4D2D682C601146441A4C60094C5E
:1016900024680C60084D4C682C60084D4C682C6028
:1016A0004FF00044064D2C6030BD000018040020AF
:1016B000540000205C000020640000206000002036
:1016C0006800002000BFFFF729FF064800680128D6
:1016D000F9D94FF0805004490860BFF34F8FBFF332
:1016E0006F8FF0E70C01002004ED00E02DE9F041E0
:1016F00006460D4617469846069C0DB9246000E044
:101700002760E66325640121204600F0E5FD84F8AA
:1017100050800020A064BDE8F0812DE9F05F814693
:101720000E4690469A460A9F0C9C4FEA8801A522D5
:10173000206BFEF7DBFDA8F10100216B01EB800BB4
:101740002BF0070B86B1002507E0715D04F1340032
:101750004155705D00B902E06D1C102DF5D300BF3E
:1017600000214320015502E0002084F83400202F9E
:1017700000D31F27E762E76400202065201D00F0EA
:1017800074FB04F1180000F070FB2461C7F1200025
:10179000A06164620020606584F8580052464946A2
:1017A000584600F00DFB20600B9808B10B980460C0
:1017B000BDE8F09F10B5002407E004EB84010F4A58
:1017C00002EB810000F044FB641C202CF5D30C4894
:1017D00000F03EFB0B4800F03BFB0B4800F038FBF1
:1017E0000A4800F035FB0A4800F032FB044809497A
:1017F000086004480849086010BD00000C01002082
:101800008C030020A0030020B4030020C8030020A4
:10181000DC030020040000200800002010B5014671
:10182000164800E0006803688B42FBD30246436819
:1018300013448B4204D143684C68234443600146FF
:101840000A464B6813440468A34211D10C4C036848
:101850002468A34208D04B680468646823444B6042
:1018600003681B680B6005E0054B1B680B6001E01B
:1018700003680B60884200D0016010BD5400002056
:101880005C0000202DE9F04104460D4616461F4637
:101890004FF0000865602461B5420CD8F01BA169C7
:1018A000884202D34FF0010811E0211D0948006869
:1018B00000F0DEFA0BE0BE4204D2BD4202D34FF08C
:1018C000010804E0211D0448006800F0D1FA4046F8
:1018D000BDE8F081400000203C00002070B50546C6
:1018E00000F0ECFAA86B08B9012400E0002400F035
:1018F000F7FA204670BD70B5054600F0DFFAA86B18
:10190000E96B884201D1012400E0002400F0E8FAEC
:10191000204670BD2DE9F3410D460098846C0027E8
:10192000A06BE16B88421BD294F945602A46694658
:101930002046FFF72CFE0746701C60B9606A08B9A4
:10194000012000E0002050B904F1240000F0BCFFA9
:1019500028B1012703E0701C40B284F8450000BFA5
:101960003846BDE8FC810000F8B505460E4614482F
:101970000068C068C468201D00F056FA94F828007A
:1019800000F0040088B1A06941192B463246204678
:10199000FFF778FF78B1002003462A460146009001
:1019A000204601F063F8074605E094F8280020F08F
:1019B000010084F828002046216A8847F8BD00000D
:1019C0003C000020F0B587B076E00398002805DAE7
:1019D00004AED6E90020B168904700BF0398002804
:1019E0006ADB059C606908B9012000E0002010B99D
:1019F000201D00F019FA02A800F0BEF80546039871
:101A00000A2857D2DFE800F00905072D35460608F9
:101A10002E3600BF00BF00BF00BF94F8280040F082
:101A2000010084F828000498A269811803462A4618
:101A30002046FFF727FF98B12046216A884794F88F
:101A4000280000F0040058B1002000900498A1691B
:101A5000421800231946204601F008F8074600BF47
:101A600029E000BF94F8280020F0010084F8280045
:101A700021E000BF94F8280040F0010084F828001D
:101A80000498A061A06941192B462A462046FFF719
:101A9000F9FE10E094F8280000F0020018B9204682
:101AA00000F02EFA05E094F8280020F0010084F8F8
:101AB000280000E000BF00BF002203A9034800681F
:101AC00000F03CFD002880D107B0F0BD44000020AC
:101AD000F8B505460C4600F075FB684600F04CF87A
:101AE0000646009820BB44B9B54206D800F02CFF4A
:101AF00031462846FFF738FF1CE03CB10E4800682D
:101B0000006808B9012000E000200446A91B224615
:101B10000A48006800F042FA00F016FF50B94FF092
:101B2000805007490860BFF34F8FBFF36F8F01E00C
:101B300000F00AFFF8BD0000400000204400002033
:101B400004ED00E00A490968096809B9012100E0CB
:101B5000002121B14FF0FF31064A116006E004492F
:101B60000968C968C868034A416811607047000085
:101B7000040000203000002070B5044600F0CEFDC7
:101B8000054607480068854204D200F00BF80120A2
:101B9000206001E00020206001480560284670BDFB
:101BA0004C0000202DE9F84328E01E480068C0687A
:101BB00005681C480068C068C468201D00F034F93E
:101BC0002046216A884794F8280000F00400A8B154
:101BD000A0694619AE4207D966602461211D1148EB
:101BE000006800F045F909E0002003462A46014656
:101BF0000090204600F03AFF804600BF0948006888
:101C0000006808B9012000E000200028CDD0054878
:101C10000768054800680349086003480760BDE895
:101C2000F88300003C0000204000002000BF50204E
:101C300080F31188BFF34F8FBFF36F8F00BF00BFDA
:101C4000FEE708B500BF6846FFF7EAFC04462046F9
:101C50000099FFF73DFFFFF7B5FEF4E770B50446C6
:101C600000F02CF994F945501AE0A06C38B100212D
:101C70002046FFF74FFE88B100F042FA0EE0606A9E
:101C800008B9012000E0002038B904F1240000F078
:101C90001BFE18B100F034FA00E003E0681E45B204
:101CA000002DE2DC00BFFF2084F8450000F018F9A9
:101CB00000F004F994F9445010E0206908B90120BB
:101CC00000E0002048B904F1100000F0FDFD08B16B
:101CD00000F016FA681E45B200E001E0002DECDCD1
:101CE00000BFFF2084F8440000F0FAF870BD000047
:101CF0002DE9F04105464FF0000800F063FA2B484B
:101D0000006808B9FFF7A0FC2948006828400028AF
:101D100047D145B1083505F0070020B105F00700AF
:101D2000C0F108000544002D3BD0224800688542E0
:101D300037D8214E3046046801E0264624686068A2
:101D4000A84202D220680028F7D1184800688442CF
:101D500027D0306800F10808206830606068401BB8
:101D6000102807D967196068401B7860656038469D
:101D7000FFF754FD0F4960680968081A0D490860AB
:101D8000084600680D490968884203D2094800687E
:101D90000A490860064960680968084360600020D5
:101DA000206000F0D1FD4046BDE8F0815C000020DD
:101DB0006800002060000020540000206400002023
:101DC000001F4FF080730360001F21F001030360C8
:101DD000001F034B03601438026020387047000076
:101DE0002D1C00081CB5044600F068F808480221C4
:101DF00000238022CDE9001006A1094800F04EFC26
:101E00000848006800F00AF900F06AF81CBD0000FC
:101E10008C0000205765696768745F7461736B009C
:101E2000790E00088800002001460A69D1E90130D6
:101E30009860D1E9010358605068884201D18868F0
:101E40005060002008611068401E106010687047E4
:101E500000F1080141604FF0FF31816000F108019D
:101E6000C16001610021016070470021016170477C
:101E700010B502460B685C1C0CB9106907E002F152
:101E8000080000E04068446824689C42FAD944682D
:101E90004C604C68A160886041600A611468641CF1
:101EA000146010BD42684A6093688B609368596003
:101EB0009160086103685B1C0360704700BF50209D
:101EC00080F31188BFF34F8FBFF36F8F00BF0348BC
:101ED0000068401C01490860704700005000002065
:101EE00006480068401E054908600846006820B999
:101EF000002080F3118800BF00BF70475000002011
:101F000070B506463546D6B1083D2C460C4960688A
:101F10000968084098B1206888B90949606809686B
:101F20008843606000F04EF906496068096808441B
:101F3000044908602046FFF771FC00F005FD70BD04
:101F4000680000206000002000204FF0E0210861C0
:101F50008861064800684FF47A71B0FBF1F0401ECA
:101F60004FF0E0214861072008617047B000002071
:101F7000024600200BE0084B53F8303033B9064BD3
:101F800043F8301003EBC0035A6002E0401C0828FD
:101F9000F1D300BF70470000CC0000202DE9F041D4
:101FA00005460E4617462C46FFF788FF94F9440075
:101FB000401C10B9002084F8440094F94500401CEE
:101FC00010B9002084F84500FFF78AFFA06B28B9FC
:101FD0003A46314604F1240000F0A8F82046FFF705
:101FE0003DFEBDE8F081000070B50446002544B117
:101FF00000F0E8F800212046FFF7B6F900F0A4FC55
:1020000005463DB94FF0805003490860BFF34F8F3C
:10201000BFF36F8F70BD000004ED00E070B50546A2
:10202000FFF74CFF15B92748006800E02846044632
:10203000201DFFF7F9FE78B9E06A00EB8000224925
:1020400051F8200040B994F82C10012088401F4915
:10205000096881431D480160A06A18B104F11800A5
:10206000FFF7E2FE1A480068401C1949086015484D
:102070000068844209D1211D1648FFF713FF164856
:102080000068401C1449086009E014480068401EBC
:10209000124908602046FFF7B9FAFFF753FDFFF732
:1020A0001FFF0F48006858B106480068844207D1F6
:1020B0004FF080500B490860BFF34F8FBFF36F8F15
:1020C00070BD0000000000200C010020180000205E
:1020D0002C000020C80300200C000020100000206D
:1020E0001C00002004ED00E0034909680160034979
:1020F000096841607047000028000020140000209B
:1021000001200149086070472400002070B5054691
:102110000C460548016818312846FFF7A9FE012141
:102120002046FFF721F970BD0000002070B506467B
:102130000D4614460648016818313046FFF7B2FED6
:102140000CB14FF0FF3521462846FFF70DF970BD61
:10215000000000201CB5144800210B463C22CDE9AC
:10216000001012A1134800F099FA0446012C02D184
:1021700000F05EFC0446012C14D100BF502080F317
:102180001188BFF34F8FBFF36F8F00BF4FF0FF3049
:1021900009490860012009490860002008490860D1
:1021A00000F048F81CBD00003400002049444C45B4
:1021B00000000000C5160008300000201C000020B0
:1021C0001400002002480068401C01490860704764
:1021D000380000201248006818B101201149086039
:1021E0001DE000200F4908600F480068B0FA80F039
:1021F000C0F11F0101EB81020C4B03EB820042682E
:102200005268426000F108024368934202D142687A
:10221000526842604268D268054B1A6000BF70473E
:102220003800002024000020180000200C010020AD
:102230000000002010B50A48006840F4700008490A
:1022400008600846006840F070400860FFF77CFEB8
:10225000002004490860FDF7A9FF002010BD000020
:1022600020ED00E05000002010B500BF502080F3AA
:102270001188BFF34F8FBFF36F8F00BF00F054FA88
:1022800018B14FF080500449086000BF002080F36F
:10229000118800BF10BD000004ED00E02DE9F843F7
:1022A00007460D4690460DB9002601E007FB05F6EE
:1022B00006F15400FFF71CFD04464CB1A14609F19C
:1022C000540943464A46294638460094FFF70EFA19
:1022D0002046BDE8F883000070B505460E462C4642
:1022E000FFF7ECFDD4E90F12206801FB0200A060AB
:1022F0000020A06320686060E06B401E226C2168B3
:1023000000FB0211E160FF2084F8440084F84500DE
:102310009EB9206908B9012000E00020A8B904F1A5
:10232000100000F0D1FA80B14FF0805009490860E8
:10233000BFF34F8FBFF36F8F07E004F11000FFF77B
:1023400087FD04F12400FFF783FDFFF7C9FD01209D
:1023500070BD000004ED00E02DE9FF4782B00746A4
:1023600088461D464FF000093C4600BFFFF7A6FD1A
:10237000A06BE16B884201D3022D3FD1D4F838A085
:102380002A4641462046FFF702F90646A06C90B166
:10239000022D02D1BAF1000F2AD129462046FFF7BB
:1023A000B9FA28B34FF080503C490860BFF34F8F13
:1023B000BFF36F8F1CE0606A08B9012000E00020C5
:1023C00068B904F1240000F07FFA88B14FF0805022
:1023D00032490860BFF34F8FBFF36F8F08E03EB103
:1023E0004FF080502D490860BFF34F8FBFF36F8FC0
:1023F000FFF776FD012006B0BDE8F087049818B914
:10240000FFF76EFD0020F6E7B9F1000F04D1684632
:10241000FFF76AFE4FF00109FFF762FDFFF7D2FEFA
:10242000FFF74CFD94F94400401C10B9002084F8DB
:10243000440094F94500401C10B9002084F8450080
:10244000FFF74EFD04A9684600F0FAF8F8B92046F7
:10245000FFF751FAA8B104F110000499FFF756FEF6
:102460002046FFF7FBFB00F06FFA00287FF47EAFF9
:102470004FF0805009490860BFF34F8FBFF36F8F53
:1024800074E72046FFF7EAFB00F05EFA6EE72046AD
:10249000FFF7E4FB00F058FA0020ACE704ED00E0A1
:1024A0002DE9F05F06468A4615461F46344600BFB2
:1024B0005021EFF3118081F31188BFF34F8FBFF3E9
:1024C0006F8F00BF8146A06BE16B884201D3022F62
:1024D0002BD194F945B03A4651462046FFF757F8BC
:1024E0000BF10100C8B9A06C40B139462046FFF796
:1024F00011FAB8B1B5B10120286013E0606A08B9DB
:10250000012000E0002068B904F1240000F0DCF9AB
:1025100040B13DB10120286004E00BF1010040B260
:1025200084F845004FF0010801E04FF0000800BFBB
:1025300089F3118800BF4046BDE8F09F2DE9F741BF
:1025400083B005460F464FF000082C4600BFFFF74A
:10255000B5FCA66BF6B139462046FFF703F8701EAE
:10256000A063206908B9012000E0002060B904F1EF
:10257000100000F0A9F938B14FF080502F490860E1
:10258000BFF34F8FBFF36F8FFFF7AAFC012006B098
:10259000BDE8F081059818B9FFF7A2FC0020F6E726
:1025A000B8F1000F04D101A8FFF79EFD4FF001081C
:1025B000FFF796FCFFF706FEFFF780FC94F9440056
:1025C000401C10B9002084F8440094F94500401CD8
:1025D00010B9002084F84500FFF782FC05A901A886
:1025E00000F02EF8F0B92046FFF778F9A0B104F119
:1025F00024000599FFF78AFD2046FFF72FFB00F026
:10260000A3F90028A3D14FF080500C490860BFF314
:102610004F8FBFF36F8F9AE72046FFF71FFB00F045
:1026200093F994E72046FFF719FB00F08DF9204657
:10263000FFF754F900288AD00020A8E704ED00E055
:1026400070B506460C46FFF739FC12480268706800
:10265000131A2068401C08B9002517E00E4930689D
:102660000968884204D07068904201D801250DE0C5
:102670002068984207D92068C01A20603046FFF7CA
:1026800033FD002502E0002020600125FFF728FC33
:10269000284670BD14000020280000202DE9FF4FBF
:1026A00085B0804689461746DDE912ABB800FFF7D2
:1026B0001FFB064656B15C20FFF71AFB04460CB11F
:1026C000266304E03046FFF71BFC00E000247CB1E9
:1026D0000020CDE900ABCDE902403A4649464046EC
:1026E000089BFFF71AF82046FEF78AFE012501E055
:1026F0004FF0FF35284609B0BDE8F08F054909685D
:1027000009B9012005E00449096809B9022000E07F
:10271000002070471C000020380000200149086894
:1027200070470000140000202DE9F04100273A48CE
:102730000068002863D139480068451C37480560A7
:102740008DB93748D0F800803648006834490860B1
:102750003448C0F8008034480068401C32490860A2
:10276000FFF7F0F900BF3148006885423BD300BF56
:102770002B480068006808B9012000E0002020B163
:102780004FF0FF30294908602CE025480068C068F8
:10279000C4686668B54202D22448066022E0201D63
:1027A000FFF742FBA06A18B104F11800FFF73CFBE9
:1027B00094F82C10012088401D49096808431C49E1
:1027C0000860E16A01EB81011A4A02EB8100211DD8
:1027D000FFF768FB1849E06A0968C96A8842C7D3ED
:1027E0000127C5E700BF14480068C06A00EB8000FD
:1027F000104951F82000012800D9012704E00F48B2
:102800000068401C0D4908600D48006800B10127B0
:102810003846BDE8F0810000380000201400002098
:1028200004000020080000202800002030000020C4
:10283000180000200C0100200000002020000020D3
:102840002400002070B505462C460026ADB3206D4F
:10285000401E2065E16CE06A88422ED0206D60BB8E
:10286000201DFFF7E1FA78B9E06A00EB8000144917
:1028700051F8200040B994F82C10012088401149EB
:10288000096881430F480160E06CE062E06AC0F1D2
:102890002000A06194F82C100120884009490968A3
:1028A000084308490860E16A01EB8101044A02EB30
:1028B0008100211DFFF7F6FA0126304670BD0000A9
:1028C0000C0100201800002070B50646F068C468AE
:1028D00004F11800FFF7A8FA15480068A8B9201DF0
:1028E000FFF7A2FA94F82C100120884011490968DA
:1028F000084310490860E16A01EB81010E4A02EBCE
:102900008100211DFFF7CEFA04E004F118010B4805
:10291000FFF7C8FA0A49E06A0968C96A884204D917
:10292000012501200749086000E00025284670BD08
:1029300038000020180000200C010020B403002003
:10294000000000202400002070B500240026FFF7BE
:10295000B5FA2E480068401E2C49086008460068F9
:1029600000284FD12A48006800284BD024E029488D
:10297000C068C46804F11800FFF756FA201DFFF77D
:1029800053FA94F82C100120884023490968084321
:1029900021490860E16A01EB8101204A02EB8100D4
:1029A000211DFFF77FFA1E49E06A0968C96A88425B
:1029B00002D301201B4908601648006808B90120AD
:1029C00000E000200028D2D00CB1FFF7BBF8164879
:1029D000056865B100BFFFF7A7FE10B101201149DE
:1029E00008606D1E002DF6D100200F4908600D48CB
:1029F000006838B1012630070C490860BFF34F8FDB
:102A0000BFF36F8FFFF76CFA304670BD38000020BF
:102A100010000020B4030020180000200C0100204A
:102A200000000020240000202000002004ED00E031
:102A30001CB50024FEF740FD0748006850B1074868
:102A40001F2100237822CDE9001005A10648FFF7D9
:102A500025FE044620461CBD4400002048000020FE
:102A6000546D722053766300431C00082DE9FF4724
:102A700005460C4616461F46DDF830804FF000092B
:102A80001448006810B3009401960295062C15DADC
:102A9000FFF734FE022808D10023424669460D485C
:102AA0000068FFF759FC814610E000231A4669468A
:102AB00008480068FFF750FC814607E000233A46CB
:102AC000694604480068FFF7EBFC8146484604B0BD
:102AD000BDE8F08744000020401058BFC0F14040DE
:102AE000491058BFC1F140418142EFF30080704767
:102AF00050EA010C00F113801CF5000F58BFBCF523
:102B0000000F01D48842704707D710F5000F58BF57
:102B100011F5000F15D488427047894270471CF5A3
:102B2000000F04D5BCF5000FF7D5814270474FF078
:102B3000807C1CEB400F38BF1CEB410F01D281425F
:102B4000704710B500F008F8922449004FF000508B
:102B50004FF08051FFF7C0BF0EF1020E2EF0030EB2
:102B60005EF8044B244204D44FEA4102B2F17F4F95
:102B700011D84FEA4003B3F17F4F0CD80ED14FEA82
:102B8000D07CB2F17F4F0CEB4C0C0CF1020C08BF67
:102B90004CEBD17C04E04FF0080C01E04FEAD17C13
:102BA0000CEB4C0324FA03F404F00704B4F1040C16
:102BB00006D20EEB840CBDE810404CF0010C6047CF
:102BC000DFE80CF0070802024FF00040A0F580009B
:102BD00010BD0846420018BFD2F1807288BF00F0D5
:102BE000004010BD51EA000C00F113801CF5000FED
:102BF00058BFBCF5000F01D48142704707D711F5CB
:102C0000000F58BF10F5000F15D48142704789425C
:102C100070471CF5000F04D5BCF5000FF7D58842AE
:102C200070474FF0807C1CEB410F38BF1CEB400F0E
:102C300001D28842704780EA010081EA000180EAFF
:102C40000100FFF77EBF0000682C00080000002094
:102C5000CC00000028010008342D0008CC00002022
:102C60008C3A000044010008000000000000000051
:102C70000000000000000000000000000000000054
:102C80000000000000000000000000000000000044
:102C90000000000000000000000000000000000034
:102CA0000000000000000000000000000000000024
:102CB0000000000000000000AAAAAAAA000000006C
:102CC0000000000000000000000000000000000004
:102CD00000000000000000000102030401020304E0
:102CE00006070809020406080000000000000000B2
:102CF00000000000000000000000000000000000D4
:102D000000000000000000000000000000000000C3
:102D1000000000000000000000A24A0400000000C3
:102D2000000000000102030406070809000000007B
:042D3000000000009F
:04000005080000ED02
:00000001FF
